:100000000C9435000C945D000C945D000C945D0024
:100010000C945D000C945D000C945D000C945D00EC
:100020000C945D000C945D000C945D000C945D00DC
:100030000C945D000C945D000C945D000C945D00CC
:100040000C949A000C945D000C9485010C94FE01B4
:100050000C945D000C945D000C945D000C945D00AC
:100060000C945D000C945D00BB0111241FBECFEF0A
:10007000D8E0DEBFCDBF11E0A0E0B1E0EEE9F9E0ED
:1000800002C005900D92A234B107D9F711E0A2E4A5
:10009000B1E001C01D92A83EB107E1F710E0CAE649
:1000A000D0E004C02297FE010E94C904C836D107DF
:1000B000C9F70E9462000C945F000C940000F89451
:1000C0000C94CD040F931F930E94E2008BE491E007
:1000D00040E855E260E070E026E00E94540262E3EE
:1000E00070E080E090E00E941D018BE491E060E010
:1000F00071E00E94720468EE73E080E090E00E947C
:100100001D0160E070E08B010F5F1F4F8BE491E0F9
:100110004AE050E00E945F048BE491E06CE071E003
:100120000E94720468EE73E080E090E00E941D017E
:10013000B801E9CF1F920F920FB60F9211242F939F
:100140003F938F939F93AF93BF938091460190917C
:100150004701A0914801B091490130914A010196AF
:10016000A11DB11D232F2D5F2D3720F02D57019696
:10017000A11DB11D20934A01809346019093470130
:10018000A0934801B09349018091420190914301AD
:10019000A0914401B09145010196A11DB11D80932C
:1001A000420190934301A0934401B0934501BF9154
:1001B000AF919F918F913F912F910F900FBE0F9014
:1001C0001F901895789484B5826084BD84B5816051
:1001D00084BD85B5826085BD85B5816085BDEEE64F
:1001E000F0E0808181608083E1E8F0E0108280812E
:1001F00082608083808181608083E0E8F0E080819C
:1002000081608083E1EBF0E0808184608083E0EBBB
:10021000F0E0808181608083EAE7F0E080818460A3
:1002200080838081826080838081816080838081FF
:10023000806880831092C1000895EF92FF920F931F
:100240001F93CF93DF937B018C013FB7F89480918C
:10025000420190914301A0914401B091450126B51E
:10026000A89B05C02F3F19F00196A11DB11D3FBFEE
:10027000BA2FA92F982F8827820F911DA11DB11D7C
:1002800052E0880F991FAA1FBB1F5A95D1F7EC01A6
:1002900030C00E9485043FB7F8948091420190914C
:1002A0004301A0914401B091450126B5A89B05C02A
:1002B0002F3F19F00196A11DB11D3FBFBA2FA92FE5
:1002C000982F8827820F911DA11DB11D32E0880F44
:1002D000991FAA1FBB1F3A95D1F78C1B9D0B885EF7
:1002E0009340B8F20894E108F10801091109C851D6
:1002F000DC4FE114F1040105110559F6DF91CF91AE
:100300001F910F91FF90EF9008951F920F920FB6DB
:100310000F9211242F938F939F93EF93FF93E0916C
:100320005B01F0915C01808182FD16C0E09161016A
:10033000F09162012081909164019F5F9F73809191
:100340006501981771F0E0916401F0E0E55BFE4F04
:10035000258F9093640105C0E0916101F0916201E5
:10036000E081FF91EF919F918F912F910F900FBEA0
:100370000F901F90189510924E0110924D0188EE2B
:1003800093E0A0E0B0E080934F0190935001A093E0
:100390005101B093520185E391E090934C01809319
:1003A0004B0185EC90E0909358018093570184ECC9
:1003B00090E090935A018093590180EC90E09093E3
:1003C0005C0180935B0181EC90E090935E018093EF
:1003D0005D0182EC90E09093600180935F0186EC78
:1003E00090E09093620180936101109264011092F9
:1003F0006501109266011092670108951F920F9295
:100400000FB60F9211242F933F934F935F936F93E7
:100410007F938F939F93AF93BF93EF93FF938BE45F
:1004200091E00E942402FF91EF91BF91AF919F91C3
:100430008F917F916F915F914F913F912F910F908D
:100440000FBE0F901F901895DC015C968C915C9705
:10045000FD01E80FF11DE35AFF4F20815C968C915E
:100460005C9790E001968F7390705C968C935C978C
:100470005696ED91FC91579720835096ED91FC9103
:1004800051978081806480835B969C915B975C969A
:100490008C915C97981739F45296ED91FC91539793
:1004A00080818F7D80830895DF92EF92FF920F937A
:1004B0001F93CF93DF93EC017A018B01D22EE88951
:1004C000F98982E08083403081EE580780E0680738
:1004D00080E07807A1F060E079E08DE390E0A8018A
:1004E00097010E94A504215030404040504056954D
:1004F00047953795279580E12030380798F0E889AF
:10050000F989108260E874E88EE190E0A801970113
:100510000E94A504215030404040504056954795D8
:1005200037952795EC85FD853083EE85FF85208303
:10053000188EEC89FD89D082EA89FB8980818061EF
:100540008083EA89FB89808188608083EA89FB89CE
:10055000808180688083EA89FB8980818F7D8083A8
:10056000DF91CF911F910F91FF90EF90DF90089551
:10057000FC01218D828D30E0205C3F4F281B31092A
:100580002F733070C9010895FC01918D828D9817E9
:1005900019F42FEF3FEF06C0828DE80FF11D858D16
:1005A000282F30E0C9010895DC0159969C91599794
:1005B0005A968C915A97981719F42FEF3FEF10C065
:1005C0005A968C915A97FD01E80FF11D958D5A9618
:1005D0008C915A978F5F8F735A968C93292F30E0A6
:1005E000C9010895CF93DF93EC01888D882361F4CE
:1005F00019C08C9185FF0AC0E889F989808185FF3F
:1006000005C0CE010E942402AA89BB898C9185FD78
:1006100005C0E889F989808186FD04C00FB607FE10
:10062000E8CFF4CFDF91CF9108950F931F93CF932D
:10063000DF93EC01062F9B8D8C8D981791F5E8893F
:10064000F989808185FF2DC0EE89FF896083E88963
:10065000F9898081806480831DC00FB607FC08C0C3
:10066000E889F989808185FF03C0CE010E942402B8
:100670008C8D181791F38B8DFE01E80FF11DE35A55
:10068000FF4F00831B8FEA89FB8980818062808312
:1006900081E0888F81E090E0DF91CF911F910F91F1
:1006A00008951B8D1F5F1F73E3CFCF92DF92EF92F0
:1006B000FF920F931F93CF93DF937C016B018A010D
:1006C000C0E0D0E00FC0D6016D916D01D701ED9172
:1006D000FC910190F081E02DC7010995C80FD91F49
:1006E000015010400115110571F7CE01DF91CF9136
:1006F0001F910F91FF90EF90DF90CF900895EF92B0
:10070000FF920F931F938C01DC01ED91FC910190FE
:10071000F081E02D6DE009957C01D801ED91FC910F
:100720000190F081E02DC8016AE009959C012E0D31
:100730003F1DC9011F910F91FF90EF900895CF9336
:10074000DF93EC016115710519F420E030E00FC072
:10075000DB010D900020E9F71197A61BB70BE8818C
:10076000F9810280F381E02DAD0109959C01C90159
:10077000DF91CF9108954F925F927F928F929F92D7
:10078000AF92BF92CF92DF92EF92FF920F931F939F
:10079000DF93CF93CDB7DEB7A1970FB6F894DEBF46
:1007A0000FBECDBF2C01742ECB01223008F42AE0FD
:1007B00019A231E2C32ED12CCC0EDD1E822E99243B
:1007C000AA24BB24672D752FA50194010E94A504BE
:1007D00079018A01C801B701A50194010E9486042C
:1007E000472D461B0894C108D1084A3014F4405DD7
:1007F00001C0495CF6014083E114F10401051105D3
:1008000021F07E2C5F2DC801DDCFC201B6010E9410
:100810009F03A1960FB6F894DEBF0FBECDBFCF9158
:10082000DF911F910F91FF90EF90DF90CF90BF90DD
:10083000AF909F908F907F905F904F900895CF9250
:10084000DF92EF92FF920F931F93CF93DF93EC0110
:100850006A017B012115310541F4E881F98101909C
:10086000F081E02D642F09951FC02A303105D1F4A5
:1008700077FF17C0E881F9810190F081E02D6DE2EA
:1008800009958C0144275527BA014C195D096E0959
:100890007F09CE012AE00E94BB039801280F391F6F
:1008A00004C02AE00E94BB039C01C901DF91CF91E3
:1008B0001F910F91FF90EF90DF90CF900895EF92EE
:1008C000FF920F931F937B019A010027F7FC00957D
:1008D000102FB801A7010E941F041F910F91FF90D4
:1008E000EF900895EF92FF920F931F937C010E9467
:1008F0009F038C01C7010E947F03080F191FC801C5
:100900001F910F91FF90EF9008950895629FD0017D
:10091000739FF001829FE00DF11D649FE00DF11DBA
:10092000929FF00D839FF00D749FF00D659FF00D69
:100930009927729FB00DE11DF91F639FB00DE11D56
:10094000F91FBD01CF0111240895A1E21A2EAA1B9F
:10095000BB1BFD010DC0AA1FBB1FEE1FFF1FA2176F
:10096000B307E407F50720F0A21BB30BE40BF50B6C
:10097000661F771F881F991F1A9469F760957095F5
:10098000809590959B01AC01BD01CF010895EE0FBC
:0E099000FF1F0590F491E02D0994F894FFCF1D
:10099E0048656C6C6F20576F726C64003A20576517
:1009AE006C636F6D6520746F2041726475696E6F34
:1009BE0020432B2B204C696E757820576F726C6418
:1009CE00000000000015035503B802D402C402F261
:0209DE00020015
:00000001FF
